{
  "_format": "hh-sol-artifact-1",
  "contractName": "MyERC20",
  "sourceName": "contracts/MyERC20.sol",
  "abi": [
    {
      "inputs": [
        {
          "internalType": "string",
          "name": "name",
          "type": "string"
        },
        {
          "internalType": "string",
          "name": "symbol",
          "type": "string"
        }
      ],
      "stateMutability": "nonpayable",
      "type": "constructor"
    },
    {
      "anonymous": false,
      "inputs": [
        {
          "indexed": true,
          "internalType": "address",
          "name": "owner",
          "type": "address"
        },
        {
          "indexed": true,
          "internalType": "address",
          "name": "spender",
          "type": "address"
        },
        {
          "indexed": false,
          "internalType": "uint256",
          "name": "value",
          "type": "uint256"
        }
      ],
      "name": "Approval",
      "type": "event"
    },
    {
      "anonymous": false,
      "inputs": [
        {
          "indexed": true,
          "internalType": "address",
          "name": "previousOwner",
          "type": "address"
        },
        {
          "indexed": true,
          "internalType": "address",
          "name": "newOwner",
          "type": "address"
        }
      ],
      "name": "OwnershipTransferred",
      "type": "event"
    },
    {
      "anonymous": false,
      "inputs": [
        {
          "indexed": false,
          "internalType": "address",
          "name": "account",
          "type": "address"
        }
      ],
      "name": "Paused",
      "type": "event"
    },
    {
      "anonymous": false,
      "inputs": [
        {
          "indexed": true,
          "internalType": "bytes32",
          "name": "role",
          "type": "bytes32"
        },
        {
          "indexed": true,
          "internalType": "bytes32",
          "name": "previousAdminRole",
          "type": "bytes32"
        },
        {
          "indexed": true,
          "internalType": "bytes32",
          "name": "newAdminRole",
          "type": "bytes32"
        }
      ],
      "name": "RoleAdminChanged",
      "type": "event"
    },
    {
      "anonymous": false,
      "inputs": [
        {
          "indexed": true,
          "internalType": "bytes32",
          "name": "role",
          "type": "bytes32"
        },
        {
          "indexed": true,
          "internalType": "address",
          "name": "account",
          "type": "address"
        },
        {
          "indexed": true,
          "internalType": "address",
          "name": "sender",
          "type": "address"
        }
      ],
      "name": "RoleGranted",
      "type": "event"
    },
    {
      "anonymous": false,
      "inputs": [
        {
          "indexed": true,
          "internalType": "bytes32",
          "name": "role",
          "type": "bytes32"
        },
        {
          "indexed": true,
          "internalType": "address",
          "name": "account",
          "type": "address"
        },
        {
          "indexed": true,
          "internalType": "address",
          "name": "sender",
          "type": "address"
        }
      ],
      "name": "RoleRevoked",
      "type": "event"
    },
    {
      "anonymous": false,
      "inputs": [
        {
          "indexed": true,
          "internalType": "address",
          "name": "from",
          "type": "address"
        },
        {
          "indexed": true,
          "internalType": "address",
          "name": "to",
          "type": "address"
        },
        {
          "indexed": false,
          "internalType": "uint256",
          "name": "value",
          "type": "uint256"
        }
      ],
      "name": "Transfer",
      "type": "event"
    },
    {
      "anonymous": false,
      "inputs": [
        {
          "indexed": false,
          "internalType": "address",
          "name": "account",
          "type": "address"
        }
      ],
      "name": "Unpaused",
      "type": "event"
    },
    {
      "inputs": [],
      "name": "CONTROLLER_ROLE",
      "outputs": [
        {
          "internalType": "bytes32",
          "name": "",
          "type": "bytes32"
        }
      ],
      "stateMutability": "view",
      "type": "function"
    },
    {
      "inputs": [],
      "name": "DEFAULT_ADMIN_ROLE",
      "outputs": [
        {
          "internalType": "bytes32",
          "name": "",
          "type": "bytes32"
        }
      ],
      "stateMutability": "view",
      "type": "function"
    },
    {
      "inputs": [],
      "name": "SPENDER_ROLE",
      "outputs": [
        {
          "internalType": "bytes32",
          "name": "",
          "type": "bytes32"
        }
      ],
      "stateMutability": "view",
      "type": "function"
    },
    {
      "inputs": [
        {
          "internalType": "address",
          "name": "owner",
          "type": "address"
        },
        {
          "internalType": "address",
          "name": "spender",
          "type": "address"
        }
      ],
      "name": "allowance",
      "outputs": [
        {
          "internalType": "uint256",
          "name": "",
          "type": "uint256"
        }
      ],
      "stateMutability": "view",
      "type": "function"
    },
    {
      "inputs": [
        {
          "internalType": "address",
          "name": "spender",
          "type": "address"
        },
        {
          "internalType": "uint256",
          "name": "amount",
          "type": "uint256"
        }
      ],
      "name": "approve",
      "outputs": [
        {
          "internalType": "bool",
          "name": "",
          "type": "bool"
        }
      ],
      "stateMutability": "nonpayable",
      "type": "function"
    },
    {
      "inputs": [
        {
          "internalType": "address",
          "name": "account",
          "type": "address"
        }
      ],
      "name": "balanceOf",
      "outputs": [
        {
          "internalType": "uint256",
          "name": "",
          "type": "uint256"
        }
      ],
      "stateMutability": "view",
      "type": "function"
    },
    {
      "inputs": [
        {
          "internalType": "uint256",
          "name": "amount",
          "type": "uint256"
        }
      ],
      "name": "burn",
      "outputs": [],
      "stateMutability": "nonpayable",
      "type": "function"
    },
    {
      "inputs": [
        {
          "internalType": "address",
          "name": "account",
          "type": "address"
        },
        {
          "internalType": "uint256",
          "name": "amount",
          "type": "uint256"
        }
      ],
      "name": "burnFrom",
      "outputs": [],
      "stateMutability": "nonpayable",
      "type": "function"
    },
    {
      "inputs": [],
      "name": "decimals",
      "outputs": [
        {
          "internalType": "uint8",
          "name": "",
          "type": "uint8"
        }
      ],
      "stateMutability": "view",
      "type": "function"
    },
    {
      "inputs": [
        {
          "internalType": "address",
          "name": "spender",
          "type": "address"
        },
        {
          "internalType": "uint256",
          "name": "subtractedValue",
          "type": "uint256"
        }
      ],
      "name": "decreaseAllowance",
      "outputs": [
        {
          "internalType": "bool",
          "name": "",
          "type": "bool"
        }
      ],
      "stateMutability": "nonpayable",
      "type": "function"
    },
    {
      "inputs": [
        {
          "internalType": "address",
          "name": "from",
          "type": "address"
        },
        {
          "internalType": "address",
          "name": "to",
          "type": "address"
        },
        {
          "internalType": "uint256",
          "name": "amount",
          "type": "uint256"
        }
      ],
      "name": "forceTransfer",
      "outputs": [],
      "stateMutability": "nonpayable",
      "type": "function"
    },
    {
      "inputs": [],
      "name": "getControllerRole",
      "outputs": [
        {
          "internalType": "bytes32",
          "name": "",
          "type": "bytes32"
        }
      ],
      "stateMutability": "view",
      "type": "function"
    },
    {
      "inputs": [
        {
          "internalType": "bytes32",
          "name": "role",
          "type": "bytes32"
        }
      ],
      "name": "getRoleAdmin",
      "outputs": [
        {
          "internalType": "bytes32",
          "name": "",
          "type": "bytes32"
        }
      ],
      "stateMutability": "view",
      "type": "function"
    },
    {
      "inputs": [
        {
          "internalType": "bytes32",
          "name": "role",
          "type": "bytes32"
        },
        {
          "internalType": "uint256",
          "name": "index",
          "type": "uint256"
        }
      ],
      "name": "getRoleMember",
      "outputs": [
        {
          "internalType": "address",
          "name": "",
          "type": "address"
        }
      ],
      "stateMutability": "view",
      "type": "function"
    },
    {
      "inputs": [
        {
          "internalType": "bytes32",
          "name": "role",
          "type": "bytes32"
        }
      ],
      "name": "getRoleMemberCount",
      "outputs": [
        {
          "internalType": "uint256",
          "name": "",
          "type": "uint256"
        }
      ],
      "stateMutability": "view",
      "type": "function"
    },
    {
      "inputs": [],
      "name": "getSpenderRole",
      "outputs": [
        {
          "internalType": "bytes32",
          "name": "",
          "type": "bytes32"
        }
      ],
      "stateMutability": "view",
      "type": "function"
    },
    {
      "inputs": [
        {
          "internalType": "bytes32",
          "name": "role",
          "type": "bytes32"
        },
        {
          "internalType": "address",
          "name": "account",
          "type": "address"
        }
      ],
      "name": "grantRole",
      "outputs": [],
      "stateMutability": "nonpayable",
      "type": "function"
    },
    {
      "inputs": [
        {
          "internalType": "bytes32",
          "name": "role",
          "type": "bytes32"
        },
        {
          "internalType": "address",
          "name": "account",
          "type": "address"
        }
      ],
      "name": "hasRole",
      "outputs": [
        {
          "internalType": "bool",
          "name": "",
          "type": "bool"
        }
      ],
      "stateMutability": "view",
      "type": "function"
    },
    {
      "inputs": [
        {
          "internalType": "address",
          "name": "spender",
          "type": "address"
        },
        {
          "internalType": "uint256",
          "name": "addedValue",
          "type": "uint256"
        }
      ],
      "name": "increaseAllowance",
      "outputs": [
        {
          "internalType": "bool",
          "name": "",
          "type": "bool"
        }
      ],
      "stateMutability": "nonpayable",
      "type": "function"
    },
    {
      "inputs": [
        {
          "internalType": "address",
          "name": "to",
          "type": "address"
        },
        {
          "internalType": "uint256",
          "name": "amount",
          "type": "uint256"
        }
      ],
      "name": "mint",
      "outputs": [],
      "stateMutability": "nonpayable",
      "type": "function"
    },
    {
      "inputs": [],
      "name": "name",
      "outputs": [
        {
          "internalType": "string",
          "name": "",
          "type": "string"
        }
      ],
      "stateMutability": "view",
      "type": "function"
    },
    {
      "inputs": [],
      "name": "owner",
      "outputs": [
        {
          "internalType": "address",
          "name": "",
          "type": "address"
        }
      ],
      "stateMutability": "view",
      "type": "function"
    },
    {
      "inputs": [],
      "name": "pause",
      "outputs": [],
      "stateMutability": "nonpayable",
      "type": "function"
    },
    {
      "inputs": [],
      "name": "paused",
      "outputs": [
        {
          "internalType": "bool",
          "name": "",
          "type": "bool"
        }
      ],
      "stateMutability": "view",
      "type": "function"
    },
    {
      "inputs": [],
      "name": "renounceOwnership",
      "outputs": [],
      "stateMutability": "nonpayable",
      "type": "function"
    },
    {
      "inputs": [
        {
          "internalType": "bytes32",
          "name": "role",
          "type": "bytes32"
        },
        {
          "internalType": "address",
          "name": "account",
          "type": "address"
        }
      ],
      "name": "renounceRole",
      "outputs": [],
      "stateMutability": "nonpayable",
      "type": "function"
    },
    {
      "inputs": [
        {
          "internalType": "bytes32",
          "name": "role",
          "type": "bytes32"
        },
        {
          "internalType": "address",
          "name": "account",
          "type": "address"
        }
      ],
      "name": "revokeRole",
      "outputs": [],
      "stateMutability": "nonpayable",
      "type": "function"
    },
    {
      "inputs": [
        {
          "internalType": "bytes4",
          "name": "interfaceId",
          "type": "bytes4"
        }
      ],
      "name": "supportsInterface",
      "outputs": [
        {
          "internalType": "bool",
          "name": "",
          "type": "bool"
        }
      ],
      "stateMutability": "view",
      "type": "function"
    },
    {
      "inputs": [],
      "name": "symbol",
      "outputs": [
        {
          "internalType": "string",
          "name": "",
          "type": "string"
        }
      ],
      "stateMutability": "view",
      "type": "function"
    },
    {
      "inputs": [],
      "name": "totalSupply",
      "outputs": [
        {
          "internalType": "uint256",
          "name": "",
          "type": "uint256"
        }
      ],
      "stateMutability": "view",
      "type": "function"
    },
    {
      "inputs": [
        {
          "internalType": "address",
          "name": "to",
          "type": "address"
        },
        {
          "internalType": "uint256",
          "name": "amount",
          "type": "uint256"
        }
      ],
      "name": "transfer",
      "outputs": [
        {
          "internalType": "bool",
          "name": "",
          "type": "bool"
        }
      ],
      "stateMutability": "nonpayable",
      "type": "function"
    },
    {
      "inputs": [
        {
          "internalType": "address",
          "name": "from",
          "type": "address"
        },
        {
          "internalType": "address",
          "name": "to",
          "type": "address"
        },
        {
          "internalType": "uint256",
          "name": "amount",
          "type": "uint256"
        }
      ],
      "name": "transferFrom",
      "outputs": [
        {
          "internalType": "bool",
          "name": "",
          "type": "bool"
        }
      ],
      "stateMutability": "nonpayable",
      "type": "function"
    },
    {
      "inputs": [
        {
          "internalType": "address",
          "name": "newOwner",
          "type": "address"
        }
      ],
      "name": "transferOwnership",
      "outputs": [],
      "stateMutability": "nonpayable",
      "type": "function"
    },
    {
      "inputs": [],
      "name": "unpause",
      "outputs": [],
      "stateMutability": "nonpayable",
      "type": "function"
    }
  ],
  "bytecode": "0x60806040523480156200001157600080fd5b5060405162001f2338038062001f23833981016040819052620000349162000322565b81816200004133620000d8565b60066200004f83826200041a565b5060076200005e82826200041a565b50506008805460ff19169055506200007860003362000128565b620000a47f7b765e0e932d348852a6f810bfa1ab891e259123f02db8cdcde614c5702233573362000128565b620000d07f7434c6f201a551bfd17336985361933e0c4935b520dac8a49d937b325f7d5c0a3362000128565b5050620004e6565b600080546001600160a01b038381166001600160a01b0319831681178455604051919092169283917f8be0079c531659141344cd1fd0a4f28419497f9722a3daafe3b4186f6b6457e09190a35050565b62000134828262000138565b5050565b62000144828262000163565b60008281526002602052604090206200015e9082620001eb565b505050565b60008281526001602090815260408083206001600160a01b038516845290915290205460ff16620001345760008281526001602081815260408084206001600160a01b0386168086529252808420805460ff19169093179092559051339285917f2f8788117e7eff1d82e926ec794901d17c78024a50270940304540a733656f0d9190a45050565b600062000202836001600160a01b0384166200020b565b90505b92915050565b6000818152600183016020526040812054620002545750815460018181018455600084815260208082209093018490558454848252828601909352604090209190915562000205565b50600062000205565b634e487b7160e01b600052604160045260246000fd5b600082601f8301126200028557600080fd5b81516001600160401b0380821115620002a257620002a26200025d565b604051601f8301601f19908116603f01168101908282118183101715620002cd57620002cd6200025d565b81604052838152602092508683858801011115620002ea57600080fd5b600091505b838210156200030e5785820183015181830184015290820190620002ef565b600093810190920192909252949350505050565b600080604083850312156200033657600080fd5b82516001600160401b03808211156200034e57600080fd5b6200035c8683870162000273565b935060208501519150808211156200037357600080fd5b50620003828582860162000273565b9150509250929050565b600181811c90821680620003a157607f821691505b602082108103620003c257634e487b7160e01b600052602260045260246000fd5b50919050565b601f8211156200015e57600081815260208120601f850160051c81016020861015620003f15750805b601f850160051c820191505b818110156200041257828155600101620003fd565b505050505050565b81516001600160401b038111156200043657620004366200025d565b6200044e816200044784546200038c565b84620003c8565b602080601f8311600181146200048657600084156200046d5750858301515b600019600386901b1c1916600185901b17855562000412565b600085815260208120601f198616915b82811015620004b75788860151825594840194600190910190840162000496565b5085821015620004d65787850151600019600388901b60f8161c191681555b5050505050600190811b01905550565b611a2d80620004f66000396000f3fe608060405234801561001057600080fd5b50600436106102065760003560e01c8063715018a61161011a578063a217fddf116100ad578063d547741f1161007c578063d547741f1461045a578063dd62ed3e1461046d578063e731baed14610480578063efe9dcb7146104a6578063f2fde38b146104ba57600080fd5b8063a217fddf14610419578063a457c2d714610421578063a9059cbb14610434578063ca15c8731461044757600080fd5b80638da5cb5b116100e95780638da5cb5b146103c65780639010d07c146103eb57806391d14854146103fe57806395d89b411461041157600080fd5b8063715018a61461037c57806372c16a241461038457806379cc6790146103ab5780638456cb59146103be57600080fd5b8063313ce5671161019d5780633f4ba83a1161016c5780633f4ba83a1461031a57806340c10f191461032257806342966c68146103355780635c975abb1461034857806370a082311461035357600080fd5b8063313ce567146102d257806333bebb77146102e157806336568abe146102f4578063395093511461030757600080fd5b806318160ddd116101d957806318160ddd1461027e57806323b872dd14610286578063248a9ca3146102995780632f2ff15d146102bd57600080fd5b806301ffc9a71461020b57806306fdde0314610233578063092c5b3b14610248578063095ea7b31461026b575b600080fd5b61021e61021936600461167c565b6104cd565b60405190151581526020015b60405180910390f35b61023b6104f8565b60405161022a91906116ca565b61025d6000805160206119d883398151915281565b60405190815260200161022a565b61021e610279366004611719565b61058a565b60055461025d565b61021e610294366004611743565b6105a2565b61025d6102a736600461177f565b6000908152600160208190526040909120015490565b6102d06102cb366004611798565b6105c6565b005b6040516012815260200161022a565b6102d06102ef366004611743565b6105f1565b6102d0610302366004611798565b61068e565b61021e610315366004611719565b61070c565b6102d061072e565b6102d0610330366004611719565b61076c565b6102d061034336600461177f565b6107aa565b60085460ff1661021e565b61025d6103613660046117c4565b6001600160a01b031660009081526003602052604090205490565b6102d06107b7565b61025d7f7434c6f201a551bfd17336985361933e0c4935b520dac8a49d937b325f7d5c0a81565b6102d06103b9366004611719565b6107c9565b6102d06107de565b6000546001600160a01b03165b6040516001600160a01b03909116815260200161022a565b6103d36103f93660046117df565b61081a565b61021e61040c366004611798565b610839565b61023b610864565b61025d600081565b61021e61042f366004611719565b610873565b61021e610442366004611719565b6108ee565b61025d61045536600461177f565b6108fc565b6102d0610468366004611798565b610913565b61025d61047b366004611801565b610939565b7f7434c6f201a551bfd17336985361933e0c4935b520dac8a49d937b325f7d5c0a61025d565b6000805160206119d883398151915261025d565b6102d06104c83660046117c4565b610964565b60006001600160e01b03198216635a05180f60e01b14806104f257506104f2826109da565b92915050565b6060600680546105079061182b565b80601f01602080910402602001604051908101604052809291908181526020018280546105339061182b565b80156105805780601f1061055557610100808354040283529160200191610580565b820191906000526020600020905b81548152906001019060200180831161056357829003601f168201915b5050505050905090565b600033610598818585610a0f565b5060019392505050565b6000336105b0858285610b33565b6105bb858585610bad565b506001949350505050565b600082815260016020819052604090912001546105e281610d63565b6105ec8383610d6d565b505050565b61061b7f7434c6f201a551bfd17336985361933e0c4935b520dac8a49d937b325f7d5c0a33610839565b6106835760405162461bcd60e51b815260206004820152602e60248201527f4f6e6c79206120636f6e7472616374207370656e6465722063616e2063616c6c60448201526d103a3434b990333ab731ba34b7b760911b60648201526084015b60405180910390fd5b6105ec838383610bad565b6001600160a01b03811633146106fe5760405162461bcd60e51b815260206004820152602f60248201527f416363657373436f6e74726f6c3a2063616e206f6e6c792072656e6f756e636560448201526e103937b632b9903337b91039b2b63360891b606482015260840161067a565b6107088282610d8f565b5050565b60003361059881858561071f8383610939565b610729919061187b565b610a0f565b6107466000805160206119d883398151915233610839565b6107625760405162461bcd60e51b815260040161067a9061188e565b61076a610db1565b565b6107846000805160206119d883398151915233610839565b6107a05760405162461bcd60e51b815260040161067a9061188e565b6107088282610e03565b6107b43382610ed0565b50565b6107bf611010565b61076a600061106a565b6107d4823383610b33565b6107088282610ed0565b6107f66000805160206119d883398151915233610839565b6108125760405162461bcd60e51b815260040161067a9061188e565b61076a6110ba565b600082815260026020526040812061083290836110f7565b9392505050565b60009182526001602090815260408084206001600160a01b0393909316845291905290205460ff1690565b6060600780546105079061182b565b600033816108818286610939565b9050838110156108e15760405162461bcd60e51b815260206004820152602560248201527f45524332303a2064656372656173656420616c6c6f77616e63652062656c6f77604482015264207a65726f60d81b606482015260840161067a565b6105bb8286868403610a0f565b600033610598818585610bad565b60008181526002602052604081206104f290611103565b6000828152600160208190526040909120015461092f81610d63565b6105ec8383610d8f565b6001600160a01b03918216600090815260046020908152604080832093909416825291909152205490565b61096c611010565b6001600160a01b0381166109d15760405162461bcd60e51b815260206004820152602660248201527f4f776e61626c653a206e6577206f776e657220697320746865207a65726f206160448201526564647265737360d01b606482015260840161067a565b6107b48161106a565b60006001600160e01b03198216637965db0b60e01b14806104f257506301ffc9a760e01b6001600160e01b03198316146104f2565b6001600160a01b038316610a715760405162461bcd60e51b8152602060048201526024808201527f45524332303a20617070726f76652066726f6d20746865207a65726f206164646044820152637265737360e01b606482015260840161067a565b6001600160a01b038216610ad25760405162461bcd60e51b815260206004820152602260248201527f45524332303a20617070726f766520746f20746865207a65726f206164647265604482015261737360f01b606482015260840161067a565b6001600160a01b0383811660008181526004602090815260408083209487168084529482529182902085905590518481527f8c5be1e5ebec7d5bd14f71427d1e84f3dd0314c0f7b2291e5b200ac8c7c3b925910160405180910390a3505050565b6000610b3f8484610939565b90506000198114610ba75781811015610b9a5760405162461bcd60e51b815260206004820152601d60248201527f45524332303a20696e73756666696369656e7420616c6c6f77616e6365000000604482015260640161067a565b610ba78484848403610a0f565b50505050565b6001600160a01b038316610c115760405162461bcd60e51b815260206004820152602560248201527f45524332303a207472616e736665722066726f6d20746865207a65726f206164604482015264647265737360d81b606482015260840161067a565b6001600160a01b038216610c735760405162461bcd60e51b815260206004820152602360248201527f45524332303a207472616e7366657220746f20746865207a65726f206164647260448201526265737360e81b606482015260840161067a565b610c7e83838361110d565b6001600160a01b03831660009081526003602052604090205481811015610cf65760405162461bcd60e51b815260206004820152602660248201527f45524332303a207472616e7366657220616d6f756e7420657863656564732062604482015265616c616e636560d01b606482015260840161067a565b6001600160a01b0380851660008181526003602052604080822086860390559286168082529083902080548601905591517fddf252ad1be2c89b69c2b068fc378daa952ba7f163c4a11628f55a4df523b3ef90610d569086815260200190565b60405180910390a3610ba7565b6107b48133611118565b610d778282611171565b60008281526002602052604090206105ec90826111dc565b610d9982826111f1565b60008281526002602052604090206105ec9082611258565b610db961126d565b6008805460ff191690557f5db9ee0a495bf2e6ff9c91a7834c1ba4fdd244a5e8aa4e537bd38aeae4b073aa335b6040516001600160a01b03909116815260200160405180910390a1565b6001600160a01b038216610e595760405162461bcd60e51b815260206004820152601f60248201527f45524332303a206d696e7420746f20746865207a65726f206164647265737300604482015260640161067a565b610e656000838361110d565b8060056000828254610e77919061187b565b90915550506001600160a01b0382166000818152600360209081526040808320805486019055518481527fddf252ad1be2c89b69c2b068fc378daa952ba7f163c4a11628f55a4df523b3ef910160405180910390a35050565b6001600160a01b038216610f305760405162461bcd60e51b815260206004820152602160248201527f45524332303a206275726e2066726f6d20746865207a65726f206164647265736044820152607360f81b606482015260840161067a565b610f3c8260008361110d565b6001600160a01b03821660009081526003602052604090205481811015610fb05760405162461bcd60e51b815260206004820152602260248201527f45524332303a206275726e20616d6f756e7420657863656564732062616c616e604482015261636560f01b606482015260840161067a565b6001600160a01b03831660008181526003602090815260408083208686039055600580548790039055518581529192917fddf252ad1be2c89b69c2b068fc378daa952ba7f163c4a11628f55a4df523b3ef910160405180910390a3505050565b6000546001600160a01b0316331461076a5760405162461bcd60e51b815260206004820181905260248201527f4f776e61626c653a2063616c6c6572206973206e6f7420746865206f776e6572604482015260640161067a565b600080546001600160a01b038381166001600160a01b0319831681178455604051919092169283917f8be0079c531659141344cd1fd0a4f28419497f9722a3daafe3b4186f6b6457e09190a35050565b6110c26112b6565b6008805460ff191660011790557f62e78cea01bee320cd4e420270b5ea74000d11b0c9f74754ebdbfc544b05a258610de63390565b600061083283836112fc565b60006104f2825490565b6105ec838383611326565b6111228282610839565b6107085761112f8161138c565b61113a83602061139e565b60405160200161114b9291906118df565b60408051601f198184030181529082905262461bcd60e51b825261067a916004016116ca565b61117b8282610839565b6107085760008281526001602081815260408084206001600160a01b0386168086529252808420805460ff19169093179092559051339285917f2f8788117e7eff1d82e926ec794901d17c78024a50270940304540a733656f0d9190a45050565b6000610832836001600160a01b03841661153a565b6111fb8282610839565b156107085760008281526001602090815260408083206001600160a01b0385168085529252808320805460ff1916905551339285917ff6391f5c32d9c69d2a47ea670b442974b53935d1edc7fd64eb21e047a839171b9190a45050565b6000610832836001600160a01b038416611589565b60085460ff1661076a5760405162461bcd60e51b815260206004820152601460248201527314185d5cd8589b194e881b9bdd081c185d5cd95960621b604482015260640161067a565b60085460ff161561076a5760405162461bcd60e51b815260206004820152601060248201526f14185d5cd8589b194e881c185d5cd95960821b604482015260640161067a565b600082600001828154811061131357611313611954565b9060005260206000200154905092915050565b60085460ff16156105ec5760405162461bcd60e51b815260206004820152602a60248201527f45524332305061757361626c653a20746f6b656e207472616e736665722077686044820152691a5b19481c185d5cd95960b21b606482015260840161067a565b60606104f26001600160a01b03831660145b606060006113ad83600261196a565b6113b890600261187b565b67ffffffffffffffff8111156113d0576113d0611981565b6040519080825280601f01601f1916602001820160405280156113fa576020820181803683370190505b509050600360fc1b8160008151811061141557611415611954565b60200101906001600160f81b031916908160001a905350600f60fb1b8160018151811061144457611444611954565b60200101906001600160f81b031916908160001a905350600061146884600261196a565b61147390600161187b565b90505b60018111156114eb576f181899199a1a9b1b9c1cb0b131b232b360811b85600f16601081106114a7576114a7611954565b1a60f81b8282815181106114bd576114bd611954565b60200101906001600160f81b031916908160001a90535060049490941c936114e481611997565b9050611476565b5083156108325760405162461bcd60e51b815260206004820181905260248201527f537472696e67733a20686578206c656e67746820696e73756666696369656e74604482015260640161067a565b6000818152600183016020526040812054611581575081546001818101845560008481526020808220909301849055845484825282860190935260409020919091556104f2565b5060006104f2565b600081815260018301602052604081205480156116725760006115ad6001836119ae565b85549091506000906115c1906001906119ae565b90508181146116265760008660000182815481106115e1576115e1611954565b906000526020600020015490508087600001848154811061160457611604611954565b6000918252602080832090910192909255918252600188019052604090208390555b8554869080611637576116376119c1565b6001900381819060005260206000200160009055905585600101600086815260200190815260200160002060009055600193505050506104f2565b60009150506104f2565b60006020828403121561168e57600080fd5b81356001600160e01b03198116811461083257600080fd5b60005b838110156116c15781810151838201526020016116a9565b50506000910152565b60208152600082518060208401526116e98160408501602087016116a6565b601f01601f19169190910160400192915050565b80356001600160a01b038116811461171457600080fd5b919050565b6000806040838503121561172c57600080fd5b611735836116fd565b946020939093013593505050565b60008060006060848603121561175857600080fd5b611761846116fd565b925061176f602085016116fd565b9150604084013590509250925092565b60006020828403121561179157600080fd5b5035919050565b600080604083850312156117ab57600080fd5b823591506117bb602084016116fd565b90509250929050565b6000602082840312156117d657600080fd5b610832826116fd565b600080604083850312156117f257600080fd5b50508035926020909101359150565b6000806040838503121561181457600080fd5b61181d836116fd565b91506117bb602084016116fd565b600181811c9082168061183f57607f821691505b60208210810361185f57634e487b7160e01b600052602260045260246000fd5b50919050565b634e487b7160e01b600052601160045260246000fd5b808201808211156104f2576104f2611865565b60208082526031908201527f4f6e6c79206120636f6e747261637420636f6e74726f6c6c65722063616e206360408201527030b636103a3434b990333ab731ba34b7b760791b606082015260800190565b7f416363657373436f6e74726f6c3a206163636f756e74200000000000000000008152600083516119178160178501602088016116a6565b7001034b99036b4b9b9b4b733903937b6329607d1b60179184019182015283516119488160288401602088016116a6565b01602801949350505050565b634e487b7160e01b600052603260045260246000fd5b80820281158282048414176104f2576104f2611865565b634e487b7160e01b600052604160045260246000fd5b6000816119a6576119a6611865565b506000190190565b818103818111156104f2576104f2611865565b634e487b7160e01b600052603160045260246000fdfe7b765e0e932d348852a6f810bfa1ab891e259123f02db8cdcde614c570223357a26469706673582212206c95cfc54b3a86f34a3a8d830e5783dfc29b4f6da613f7524453117f03a9bd7464736f6c63430008130033",
  "linkReferences": {},
  "deployedLinkReferences": {}
}